{"contracts/RiskSubmit.sol":{"RiskSubmit":{"abi":[{"anonymous":false,"inputs":[{"indexed":true,"internalType":"address","name":"sender","type":"address"},{"indexed":false,"internalType":"string","name":"walletAddress","type":"string"}],"name":"WalletSubmitted","type":"event"},{"inputs":[{"internalType":"string","name":"walletAddress","type":"string"}],"name":"submitWallet","outputs":[],"stateMutability":"nonpayable","type":"function"}],"evm":{"bytecode":{"linkReferences":{},"object":"6080604052348015600f57600080fd5b506102148061001f6000396000f3fe608060405234801561001057600080fd5b506004361061002b5760003560e01c80637752ec8214610030575b600080fd5b61004a6004803603810190610045919061010f565b61004c565b005b3373ffffffffffffffffffffffffffffffffffffffff167ffa87977c0725a6de2da51354abb1e4709e39069cdb6da931d561e41ede67ec4383836040516100949291906101ba565b60405180910390a25050565b600080fd5b600080fd5b600080fd5b600080fd5b600080fd5b60008083601f8401126100cf576100ce6100aa565b5b8235905067ffffffffffffffff8111156100ec576100eb6100af565b5b602083019150836001820283011115610108576101076100b4565b5b9250929050565b60008060208385031215610126576101256100a0565b5b600083013567ffffffffffffffff811115610144576101436100a5565b5b610150858286016100b9565b92509250509250929050565b600082825260208201905092915050565b82818337600083830152505050565b6000601f19601f8301169050919050565b6000610199838561015c565b93506101a683858461016d565b6101af8361017c565b840190509392505050565b600060208201905081810360008301526101d581848661018d565b9050939250505056fea2646970667358221220a6c48aa7a0cacdf61c6ff9ad44d906c9425f2f6cea3754d845f22dd68c0c6ec364736f6c634300081c0033","opcodes":"PUSH1 0x80 PUSH1 0x40 MSTORE CALLVALUE DUP1 ISZERO PUSH1 0xF JUMPI PUSH1 0x0 DUP1 REVERT JUMPDEST POP PUSH2 0x214 DUP1 PUSH2 0x1F PUSH1 0x0 CODECOPY PUSH1 0x0 RETURN INVALID PUSH1 0x80 PUSH1 0x40 MSTORE CALLVALUE DUP1 ISZERO PUSH2 0x10 JUMPI PUSH1 0x0 DUP1 REVERT JUMPDEST POP PUSH1 0x4 CALLDATASIZE LT PUSH2 0x2B JUMPI PUSH1 0x0 CALLDATALOAD PUSH1 0xE0 SHR DUP1 PUSH4 0x7752EC82 EQ PUSH2 0x30 JUMPI JUMPDEST PUSH1 0x0 DUP1 REVERT JUMPDEST PUSH2 0x4A PUSH1 0x4 DUP1 CALLDATASIZE SUB DUP2 ADD SWAP1 PUSH2 0x45 SWAP2 SWAP1 PUSH2 0x10F JUMP JUMPDEST PUSH2 0x4C JUMP JUMPDEST STOP JUMPDEST CALLER PUSH20 0xFFFFFFFFFFFFFFFFFFFFFFFFFFFFFFFFFFFFFFFF AND PUSH32 0xFA87977C0725A6DE2DA51354ABB1E4709E39069CDB6DA931D561E41EDE67EC43 DUP4 DUP4 PUSH1 0x40 MLOAD PUSH2 0x94 SWAP3 SWAP2 SWAP1 PUSH2 0x1BA JUMP JUMPDEST PUSH1 0x40 MLOAD DUP1 SWAP2 SUB SWAP1 LOG2 POP POP JUMP JUMPDEST PUSH1 0x0 DUP1 REVERT JUMPDEST PUSH1 0x0 DUP1 REVERT JUMPDEST PUSH1 0x0 DUP1 REVERT JUMPDEST PUSH1 0x0 DUP1 REVERT JUMPDEST PUSH1 0x0 DUP1 REVERT JUMPDEST PUSH1 0x0 DUP1 DUP4 PUSH1 0x1F DUP5 ADD SLT PUSH2 0xCF JUMPI PUSH2 0xCE PUSH2 0xAA JUMP JUMPDEST JUMPDEST DUP3 CALLDATALOAD SWAP1 POP PUSH8 0xFFFFFFFFFFFFFFFF DUP2 GT ISZERO PUSH2 0xEC JUMPI PUSH2 0xEB PUSH2 0xAF JUMP JUMPDEST JUMPDEST PUSH1 0x20 DUP4 ADD SWAP2 POP DUP4 PUSH1 0x1 DUP3 MUL DUP4 ADD GT ISZERO PUSH2 0x108 JUMPI PUSH2 0x107 PUSH2 0xB4 JUMP JUMPDEST JUMPDEST SWAP3 POP SWAP3 SWAP1 POP JUMP JUMPDEST PUSH1 0x0 DUP1 PUSH1 0x20 DUP4 DUP6 SUB SLT ISZERO PUSH2 0x126 JUMPI PUSH2 0x125 PUSH2 0xA0 JUMP JUMPDEST JUMPDEST PUSH1 0x0 DUP4 ADD CALLDATALOAD PUSH8 0xFFFFFFFFFFFFFFFF DUP2 GT ISZERO PUSH2 0x144 JUMPI PUSH2 0x143 PUSH2 0xA5 JUMP JUMPDEST JUMPDEST PUSH2 0x150 DUP6 DUP3 DUP7 ADD PUSH2 0xB9 JUMP JUMPDEST SWAP3 POP SWAP3 POP POP SWAP3 POP SWAP3 SWAP1 POP JUMP JUMPDEST PUSH1 0x0 DUP3 DUP3 MSTORE PUSH1 0x20 DUP3 ADD SWAP1 POP SWAP3 SWAP2 POP POP JUMP JUMPDEST DUP3 DUP2 DUP4 CALLDATACOPY PUSH1 0x0 DUP4 DUP4 ADD MSTORE POP POP POP JUMP JUMPDEST PUSH1 0x0 PUSH1 0x1F NOT PUSH1 0x1F DUP4 ADD AND SWAP1 POP SWAP2 SWAP1 POP JUMP JUMPDEST PUSH1 0x0 PUSH2 0x199 DUP4 DUP6 PUSH2 0x15C JUMP JUMPDEST SWAP4 POP PUSH2 0x1A6 DUP4 DUP6 DUP5 PUSH2 0x16D JUMP JUMPDEST PUSH2 0x1AF DUP4 PUSH2 0x17C JUMP JUMPDEST DUP5 ADD SWAP1 POP SWAP4 SWAP3 POP POP POP JUMP JUMPDEST PUSH1 0x0 PUSH1 0x20 DUP3 ADD SWAP1 POP DUP2 DUP2 SUB PUSH1 0x0 DUP4 ADD MSTORE PUSH2 0x1D5 DUP2 DUP5 DUP7 PUSH2 0x18D JUMP JUMPDEST SWAP1 POP SWAP4 SWAP3 POP POP POP JUMP INVALID LOG2 PUSH5 0x6970667358 0x22 SLT KECCAK256 0xA6 0xC4 DUP11 0xA7 LOG0 0xCA 0xCD 0xF6 SHR PUSH16 0xF9AD44D906C9425F2F6CEA3754D845F2 0x2D 0xD6 DUP13 0xC PUSH15 0xC364736F6C634300081C0033000000 "},"methodIdentifiers":{"submitWallet(string)":"7752ec82"}}}}}