{
  "_format": "hh-sol-artifact-1",
  "contractName": "RiskStorage",
  "sourceName": "contracts/RiskStorage.sol",
  "abi": [
    {
      "inputs": [],
      "stateMutability": "nonpayable",
      "type": "constructor"
    },
    {
      "inputs": [],
      "name": "encryptedWallet",
      "outputs": [
        {
          "internalType": "string",
          "name": "",
          "type": "string"
        }
      ],
      "stateMutability": "view",
      "type": "function"
    },
    {
      "inputs": [],
      "name": "getEncryptedWallet",
      "outputs": [
        {
          "internalType": "string",
          "name": "",
          "type": "string"
        }
      ],
      "stateMutability": "view",
      "type": "function"
    },
    {
      "inputs": [],
      "name": "owner",
      "outputs": [
        {
          "internalType": "address",
          "name": "",
          "type": "address"
        }
      ],
      "stateMutability": "view",
      "type": "function"
    },
    {
      "inputs": [
        {
          "internalType": "string",
          "name": "_encryptedWallet",
          "type": "string"
        }
      ],
      "name": "storeEncryptedWallet",
      "outputs": [],
      "stateMutability": "nonpayable",
      "type": "function"
    }
  ],
  "bytecode": "0x6080604052348015600f57600080fd5b50336000806101000a81548173ffffffffffffffffffffffffffffffffffffffff021916908373ffffffffffffffffffffffffffffffffffffffff1602179055506107dc8061005f6000396000f3fe608060405234801561001057600080fd5b506004361061004c5760003560e01c80633e4cc5ec146100515780638da5cb5b1461006d578063c7534cb81461008b578063e2d077e7146100a9575b600080fd5b61006b60048036038101906100669190610378565b6100c7565b005b6100756100da565b6040516100829190610402565b60405180910390f35b6100936100fe565b6040516100a0919061049c565b60405180910390f35b6100b1610190565b6040516100be919061049c565b60405180910390f35b80600190816100d691906106d4565b5050565b60008054906101000a900473ffffffffffffffffffffffffffffffffffffffff1681565b60606001805461010d906104ed565b80601f0160208091040260200160405190810160405280929190818152602001828054610139906104ed565b80156101865780601f1061015b57610100808354040283529160200191610186565b820191906000526020600020905b81548152906001019060200180831161016957829003601f168201915b5050505050905090565b6001805461019d906104ed565b80601f01602080910402602001604051908101604052809291908181526020018280546101c9906104ed565b80156102165780601f106101eb57610100808354040283529160200191610216565b820191906000526020600020905b8154815290600101906020018083116101f957829003601f168201915b505050505081565b6000604051905090565b600080fd5b600080fd5b600080fd5b600080fd5b6000601f19601f8301169050919050565b7f4e487b7100000000000000000000000000000000000000000000000000000000600052604160045260246000fd5b6102858261023c565b810181811067ffffffffffffffff821117156102a4576102a361024d565b5b80604052505050565b60006102b761021e565b90506102c3828261027c565b919050565b600067ffffffffffffffff8211156102e3576102e261024d565b5b6102ec8261023c565b9050602081019050919050565b82818337600083830152505050565b600061031b610316846102c8565b6102ad565b90508281526020810184848401111561033757610336610237565b5b6103428482856102f9565b509392505050565b600082601f83011261035f5761035e610232565b5b813561036f848260208601610308565b91505092915050565b60006020828403121561038e5761038d610228565b5b600082013567ffffffffffffffff8111156103ac576103ab61022d565b5b6103b88482850161034a565b91505092915050565b600073ffffffffffffffffffffffffffffffffffffffff82169050919050565b60006103ec826103c1565b9050919050565b6103fc816103e1565b82525050565b600060208201905061041760008301846103f3565b92915050565b600081519050919050565b600082825260208201905092915050565b60005b8381101561045757808201518184015260208101905061043c565b60008484015250505050565b600061046e8261041d565b6104788185610428565b9350610488818560208601610439565b6104918161023c565b840191505092915050565b600060208201905081810360008301526104b68184610463565b905092915050565b7f4e487b7100000000000000000000000000000000000000000000000000000000600052602260045260246000fd5b6000600282049050600182168061050557607f821691505b602082108103610518576105176104be565b5b50919050565b60008190508160005260206000209050919050565b60006020601f8301049050919050565b600082821b905092915050565b6000600883026105807fffffffffffffffffffffffffffffffffffffffffffffffffffffffffffffffff82610543565b61058a8683610543565b95508019841693508086168417925050509392505050565b6000819050919050565b6000819050919050565b60006105d16105cc6105c7846105a2565b6105ac565b6105a2565b9050919050565b6000819050919050565b6105eb836105b6565b6105ff6105f7826105d8565b848454610550565b825550505050565b600090565b610614610607565b61061f8184846105e2565b505050565b5b818110156106435761063860008261060c565b600181019050610625565b5050565b601f821115610688576106598161051e565b61066284610533565b81016020851015610671578190505b61068561067d85610533565b830182610624565b50505b505050565b600082821c905092915050565b60006106ab6000198460080261068d565b1980831691505092915050565b60006106c4838361069a565b9150826002028217905092915050565b6106dd8261041d565b67ffffffffffffffff8111156106f6576106f561024d565b5b61070082546104ed565b61070b828285610647565b600060209050601f83116001811461073e576000841561072c578287015190505b61073685826106b8565b86555061079e565b601f19841661074c8661051e565b60005b828110156107745784890151825560018201915060208501945060208101905061074f565b86831015610791578489015161078d601f89168261069a565b8355505b6001600288020188555050505b50505050505056fea26469706673582212202d207c93a9c600013e9b3adc103f8a60be60cefa66facfaa54e595252e61708c64736f6c634300081c0033",
  "linkReferences": {},
  "deployedLinkReferences": {}
}