{
  "_format": "hh-sol-artifact-1",
  "contractName": "AlertStorage",
  "sourceName": "contracts/Lock.sol",
  "abi": [
    {
      "anonymous": false,
      "inputs": [
        {
          "indexed": true,
          "internalType": "address",
          "name": "user",
          "type": "address"
        },
        {
          "indexed": false,
          "internalType": "string",
          "name": "token",
          "type": "string"
        },
        {
          "indexed": false,
          "internalType": "string",
          "name": "message",
          "type": "string"
        }
      ],
      "name": "AlertRaised",
      "type": "event"
    },
    {
      "inputs": [
        {
          "internalType": "address",
          "name": "",
          "type": "address"
        },
        {
          "internalType": "string",
          "name": "",
          "type": "string"
        }
      ],
      "name": "alerts",
      "outputs": [
        {
          "internalType": "string",
          "name": "",
          "type": "string"
        }
      ],
      "stateMutability": "view",
      "type": "function"
    },
    {
      "inputs": [
        {
          "internalType": "address",
          "name": "user",
          "type": "address"
        },
        {
          "internalType": "string",
          "name": "token",
          "type": "string"
        }
      ],
      "name": "getAlert",
      "outputs": [
        {
          "internalType": "string",
          "name": "",
          "type": "string"
        }
      ],
      "stateMutability": "view",
      "type": "function"
    },
    {
      "inputs": [
        {
          "internalType": "address",
          "name": "user",
          "type": "address"
        },
        {
          "internalType": "string",
          "name": "token",
          "type": "string"
        },
        {
          "internalType": "string",
          "name": "message",
          "type": "string"
        }
      ],
      "name": "storeAlert",
      "outputs": [],
      "stateMutability": "nonpayable",
      "type": "function"
    }
  ],
  "bytecode": "0x6080604052348015600f57600080fd5b50610b1e8061001f6000396000f3fe608060405234801561001057600080fd5b50600436106100415760003560e01c80633dd3928814610046578063c5d79f6b14610076578063ff90c8f3146100a6575b600080fd5b610060600480360381019061005b9190610413565b6100c2565b60405161006d9190610503565b60405180910390f35b610090600480360381019061008b9190610655565b6101b2565b60405161009d9190610503565b60405180910390f35b6100c060048036038101906100bb91906106b1565b610275565b005b60606000808573ffffffffffffffffffffffffffffffffffffffff1673ffffffffffffffffffffffffffffffffffffffff1681526020019081526020016000208383604051610112929190610776565b9081526020016040518091039020805461012b906107be565b80601f0160208091040260200160405190810160405280929190818152602001828054610157906107be565b80156101a45780601f10610179576101008083540402835291602001916101a4565b820191906000526020600020905b81548152906001019060200180831161018757829003601f168201915b505050505090509392505050565b6000602052816000526040600020818051602081018201805184825260208301602085012081835280955050505050506000915091505080546101f4906107be565b80601f0160208091040260200160405190810160405280929190818152602001828054610220906107be565b801561026d5780601f106102425761010080835404028352916020019161026d565b820191906000526020600020905b81548152906001019060200180831161025057829003601f168201915b505050505081565b81816000808873ffffffffffffffffffffffffffffffffffffffff1673ffffffffffffffffffffffffffffffffffffffff16815260200190815260200160002086866040516102c5929190610776565b908152602001604051809103902091826102e09291906109b0565b508473ffffffffffffffffffffffffffffffffffffffff167f258165170f749ec218583544cec32fa5580682f37c3621a27c98fbeb7bdce53f8585858560405161032d9493929190610aad565b60405180910390a25050505050565b6000604051905090565b600080fd5b600080fd5b600073ffffffffffffffffffffffffffffffffffffffff82169050919050565b600061037b82610350565b9050919050565b61038b81610370565b811461039657600080fd5b50565b6000813590506103a881610382565b92915050565b600080fd5b600080fd5b600080fd5b60008083601f8401126103d3576103d26103ae565b5b8235905067ffffffffffffffff8111156103f0576103ef6103b3565b5b60208301915083600182028301111561040c5761040b6103b8565b5b9250929050565b60008060006040848603121561042c5761042b610346565b5b600061043a86828701610399565b935050602084013567ffffffffffffffff81111561045b5761045a61034b565b5b610467868287016103bd565b92509250509250925092565b600081519050919050565b600082825260208201905092915050565b60005b838110156104ad578082015181840152602081019050610492565b60008484015250505050565b6000601f19601f8301169050919050565b60006104d582610473565b6104df818561047e565b93506104ef81856020860161048f565b6104f8816104b9565b840191505092915050565b6000602082019050818103600083015261051d81846104ca565b905092915050565b600080fd5b7f4e487b7100000000000000000000000000000000000000000000000000000000600052604160045260246000fd5b610562826104b9565b810181811067ffffffffffffffff821117156105815761058061052a565b5b80604052505050565b600061059461033c565b90506105a08282610559565b919050565b600067ffffffffffffffff8211156105c0576105bf61052a565b5b6105c9826104b9565b9050602081019050919050565b82818337600083830152505050565b60006105f86105f3846105a5565b61058a565b90508281526020810184848401111561061457610613610525565b5b61061f8482856105d6565b509392505050565b600082601f83011261063c5761063b6103ae565b5b813561064c8482602086016105e5565b91505092915050565b6000806040838503121561066c5761066b610346565b5b600061067a85828601610399565b925050602083013567ffffffffffffffff81111561069b5761069a61034b565b5b6106a785828601610627565b9150509250929050565b6000806000806000606086880312156106cd576106cc610346565b5b60006106db88828901610399565b955050602086013567ffffffffffffffff8111156106fc576106fb61034b565b5b610708888289016103bd565b9450945050604086013567ffffffffffffffff81111561072b5761072a61034b565b5b610737888289016103bd565b92509250509295509295909350565b600081905092915050565b600061075d8385610746565b935061076a8385846105d6565b82840190509392505050565b6000610783828486610751565b91508190509392505050565b7f4e487b7100000000000000000000000000000000000000000000000000000000600052602260045260246000fd5b600060028204905060018216806107d657607f821691505b6020821081036107e9576107e861078f565b5b50919050565b600082905092915050565b60008190508160005260206000209050919050565b60006020601f8301049050919050565b600082821b905092915050565b60006008830261085c7fffffffffffffffffffffffffffffffffffffffffffffffffffffffffffffffff8261081f565b610866868361081f565b95508019841693508086168417925050509392505050565b6000819050919050565b6000819050919050565b60006108ad6108a86108a38461087e565b610888565b61087e565b9050919050565b6000819050919050565b6108c783610892565b6108db6108d3826108b4565b84845461082c565b825550505050565b600090565b6108f06108e3565b6108fb8184846108be565b505050565b5b8181101561091f576109146000826108e8565b600181019050610901565b5050565b601f82111561096457610935816107fa565b61093e8461080f565b8101602085101561094d578190505b6109616109598561080f565b830182610900565b50505b505050565b600082821c905092915050565b600061098760001984600802610969565b1980831691505092915050565b60006109a08383610976565b9150826002028217905092915050565b6109ba83836107ef565b67ffffffffffffffff8111156109d3576109d261052a565b5b6109dd82546107be565b6109e8828285610923565b6000601f831160018114610a175760008415610a05578287013590505b610a0f8582610994565b865550610a77565b601f198416610a25866107fa565b60005b82811015610a4d57848901358255600182019150602085019450602081019050610a28565b86831015610a6a5784890135610a66601f891682610976565b8355505b6001600288020188555050505b50505050505050565b6000610a8c838561047e565b9350610a998385846105d6565b610aa2836104b9565b840190509392505050565b60006040820190508181036000830152610ac8818688610a80565b90508181036020830152610add818486610a80565b90509594505050505056fea26469706673582212209844bb10dbb4a2f4982cc5ab5328175d602dbc3376003b24914a49cda107853c64736f6c634300081c0033",
  "linkReferences": {},
  "deployedLinkReferences": {}
}